7301260095000       0113249N1075513E  1ALVS021615007301300415EH            
7301270006000       0155236N1080657E  1ABVS01032400          EADAI LOC   04
7301270016000       0115710N1082715E  1AKVS02142400          EATU TAO(I0)06
7301270030000       0102210N1063301E  1AAVS04332400          EA            
7301270036000       0161905N1074623E  1AAVS010221107301282200EA            
7301270037000       0145306N1085533E  1ABVS010519007301280800EA           0
7301270050000       0113527N1065908E  1AAVS032116007301281800EH            
7301270059000       0110042N1074143E  1ABVS03182400          EA            
7301270118000       0161914N1074600E  1AGVS010224007301302400EA            
7301280001000       0153638N1081149E  1AAVS01040010          EA            
7301280002000       0153612N1081310E  1ABVS01040100          EH            
7301280003000       0164135N1070942E  1ABVS01010150          EA            
7301280004000       0161525N1075633E  1ABVS01020145          EA            
7301280005000       0164157N1071040E  1ABVS01010030          EA            
7301280007000       0151618N1085138E  1ABVS01050020          EA            
7301280008000       0000000S0000000E 24BJVS01  00017301282200EF            
7301280009000       0000000S0000000E 10BBVS01  00017301282200EF            
7301280010000       0134654N1080105E  1AAVS02080830          EA            
7301280011000       0120701N1090754E  1AAVS02120330          EH            
7301280012000       0140741N1091323E  1AAVS02070030          EA          05
7301280013000       0135845N1082810E  1ABVS02080420          EA            
7301280014000       0143450N1090248E  1ABVS02070030          EA            
7301280015000       0123254N1090932E  1AAVS02120800          EH            
7301280017000       0123047N1090239E  1AAVS02120930          EH            
7301280018000       0135123N1090144E  1ALVS02070230          EG            
7301280019000       0120642N1090607E  1ALVS02120730          EJ            
7301280020000       0134239N1090951E  1ALVS02070015          EA            
7301280021000       0141838N1090427E  1ALVS02070030          EA            
7301280022000       0131744N1090446E  1ABVS02100020          EH            
7301280023000       0125300N1092326E  1ABVS02100050          EK            
7301280024000       0000000S0000000E 31BJVS02  00017301282200EF            
7301280025000       0000000S0000000E 11BBVS02  00017301282200EF            
7301280026000       0105808N1072352E  1ABVS03190025          EH            
7301280027000       0111739N1064754E  1ABVS03230200          EIPHYOC VINH07
7301280028000       0000000S0000000E 23BJVS03  00017301282200EF            
7301280029000       0000000S0000000E  9BBVS03  00017301282200EF            
7301280031000       0095714N1054008E  1AIVS04400145          ELCAN THO     
7301280032000       0094757N1063000E  1AAVS04350030          EH            
7301280033000       0111658N1060750E  1AAVS03241037          EH            
7301280034000       0000000S0000000E 27BJVS04  00017301282200EF            
7301280035000       0000000S0000000E 50BBVS04  00017301282200EF            
7301280041000       0142233N1090235E  1AAVS02070030          EH            
7301280047000       0112205N1063732E  1AMVS03220430          EAHOA VINH  01
7301280048000       0105957N1064606E  1ANVS03260020            SONG BUONG08
7301280049000       0110642N1060808E  1AMVS03240900          EHTIEN THUAN01
7301280051000       0104445N1065824E  1AAVS03261940          EA            
7301280052000       0110852N1073741E  1AAVS03180900          EJDUY CHAN  01
7301280057000       0105710N1070047E  1ABVS03260503          EA            
7301280062000       0095930N1054649E  1AAVS04400100          EH            
7301280063000       0102505N1061500E  1AFVS04330255          EMSAM GIANG 01
7301280065000       0091608N1051323E  1AJVS04420340          EGNGS NGHI  01
7301280066000       0100459N1060033E  1AOVS04360700          EI          01
7301280074000       0165322N1071206E  1ABVS01012000          ED            
7301280078000       0165357N1071148E  1ABVS01011830          ED            
7301280082000       0165357N1071158E  1AAVS01012030          EA            
7301280121000       0154310N1081600E  1ABVS010316017301301600EA            
7301280277000       0130315N1091451E  1AMVS021000157302020600EHMY HOA    01
7301290038000       0163338N1073901E  1AIVS01020605          EBTAN MY    05
7301290039000       0000000S0000000E 50BJVS01  00017301292200EF            
7301290040000       0142245N1085900E  1AIVS02070150          EB            
7301290042000       0134917N1074220E  1AAVS02080315          EA            
7301290043000       0142236N1075255E  1ABVS02060030          EH            
7301290044000       0141748N1090503E  1ABVS02070130          EA            
7301290045000       0000000S0000000E 13BJVS02  00017301292200EF            
7301290046000       0000000S0000000E 14BBVS02  00017301292200EF            
7301290053000       0110123N1065500E  1AMVS03260215          EJTAN BINH  01
7301290054000       0110629N1061055E  1AMVS03240330          EHBAO B0    01
7301290055000       0105757N1063533E  1AFVS03231015          EMTRUNG NHI 01
7301290056000       0110235N1062012E  1ABVS03250954          EA            
7301290058000       0105627N1070831E  1ABVS031900307301290300EIDAU GIA   01
7301290060000       0000000S0000000E124BJVS03  00017301292200EF            
7301290061000       0000000S0000000E 14BBVS03  00017301292200EF            
7301290064000       0100923N1063114E  1AIVS04340320          EB            
7301290067000       0094612N1051905E  1ABVS04390915          EIDINH AH   02
7301290068000       0092451N1055636E  1AAVS04410245          EH            
7301290069000       0102215N1055716E  1ABVS04330715          EA            
7301290070000       0102415N1045755E  1ABVS04440130          EH            
7301290071000       0000000S0000000E101BJVS04  00017301292200EF            
7301290072000       0000000S0000000E 35BBVS04  00017301292200EF            
7301290073000       0165354N1071206E  1ABVS01011605          ED            
7301290075000       0165405N1071206E  1ABVS01012400          ED            
7301290077000       0165405N1071206E  1ABVS01010900          ED            
7301290081000       0165405N1071206E  1ABVS01010930          ED            
7301290083000       0165215N1071345E  1ANVS01010300          EA            
7301290084000       0145459N1085406E  1AGVS01050730          EA            
7301290085000       0162957N1072630E  1AAVS01022200          EA            
7301290086000       0163203N1072648E  1AGVS01020640          EA            
7301290087000       0155514N1081332E  1AGVS01031030          EH            
7301290088000       0163923N1071747E  1AAVS010106407301300230EA            
7301290092000       0000000S0000000E 33BBVS01  22017301302200EF            
7301290093000       0000000S0000000E 54BJVS01  22017301302200EF            
7301290094000       0134654N1080101E  1AAVS02081045          EA            
7301290098000       0000000S0000000E 11BBVS02  22017301302200EF            
7301290099000       0000000S0000000E 14BJVS02  22017301302200EF            
7301290100000       0110517N1062403E  1ABVS03252115          EICHA RAY   01
7301290101000       0110127N1064005E  1AAVS03230600          EA            
7301290104000       0000000S0000000E 10BBVS03  22017301302200EF            
7301290105000       0000000S0000000E 39BJVS03  22017301302200EF            
7301290106000       0102926N1045443E  1ABVS04442300          EA            
7301290107000       0105522N1053057E  1ABVS04322300          EA            
7301290108000       0000000S0000000E 19BBVS04  22017301302200EF            
7301290109000       0000000S0000000E 49BJVS04  22017301302200EF            
7301290137000       0111635N1060836E  1AGVS03242400          EH            
7301290168000       0000000S0000000E  7BBVS01  00017301292200EF            
7301300076000       0165405N1071206E  1ABVS01010555          ED            
7301300079000       0165245N1071315E  1ABVS01010245          ED            
7301300080000       0165405N1071206E  1ABVS01010245          ED            
7301300089000       0151633N1084328E  1AIVS01050800          ELQUANG NGAI03
7301300090000       0165245N1071315E  1AGVS01010650          ED            
7301300091000       0145338N1085519E  1AMVS01050900          EA            
7301300096000       0121537N1090155E  1AKVS02120530          EHVIEN HOA  01
7301300097000       0142231N1090221E  1ABVS02070000          EA            
7301300102000       0104306N1070033E  1AIVS03260755          EL            
7301300103000       0110239N1062035E  1ABVS03250710          EA            
7301300111000       0165405N1071206E  1AGVS01011300          ED            
7301300112000       0165249N1071313E  1AGVS01011300          ED            
7301300113000       0164658N1071309E  1ABVS01011300          ED            
7301300114000       0165057N1071512E  1ABVS01011040          ED            
7301300115000       0164259N1071033E  1AGVS01012345          EA            
7301300116000       0164312N1071048E  1ABVS01011030          EA            
7301300122000       0154009N1081559E  1AAVS010324007301311000EA            
7301300127000       0000000S0000000E 27BBVS01  20017301312000EF            
7301300128000       0000000S0000000E 45BJVS01  20017301312000EF            
7301300129000       0125022N1081509E  1AMVS02111000          EHHA LON A  01
7301300131000       0135558N1085904E  1AMVS02070930          EGVAN TRUONG02
7301300132000       0000000S0000000E 11BBVS02  20017301312000EF            
7301300133000       0000000S0000000E 21BJVS02  20017301312000EF            
7301300135000       0102902N1071554E  1ABVS03271200          EH            
7301300136000       0113558N1063827E  1ABVS03220500          EH            
7301300140000       0000000S0000000E  4BBVS03  20017301312000EF            
7301300141000       0000000S0000000E 36BJVS03  20017301312000EF            
7301300146000       0101810N1063209E  1ABVS04341730          EA            
7301300147000       0095317N1052900E  1ABVS04391555          EH            
7301300148000       0092205N1055349E  1ABVS04431830          EH            
7301300150000       0000000S0000000E 28BBVS04  20017301312000EF            
7301300151000       0000000S0000000E 54BJVS04  20017301312000EF            
7301300156000       0155442N1081259E  1AGVS01032400          EA            
7301300198000       0164250N1071000E  1DBVS01011030          EDTHACH HA( 09
7301310110000       0165339N1071115E  1DBVS01010130          EDCUA VIET  09
7301310117000       0145425N1085446E  1ABVS01050200          EH            
7301310119000       0144644N1084301E  1ABVS01050015          EA            
7301310120000       0143732N1090333E  1ABVS02070000          EA            
7301310123000       0164305N1071142E  1ABVS01011040          EA            
7301310124000       0164149N1071148E  1ABVS01010050          EA            
7301310125000       0163117N1072500E  1ABVS01020800          EA            
7301310126000       0133824N1080421E  1AAVS02080945          EH            
7301310130000       0133536N1081242E  1AIVS02080215          EB            
7301310134000       0104453N1065700E  1AMVS03260300          EHPHUOC MY  01
7301310138000       0102742N1045441E  1AMVS04440800          EABA KY/SUOI01
7301310139000       0102922N1043227E  1AAVS04380540          EH            
7301310142000       0103002N1045606E  1ABVS04440630          EA            
7301310143000       0104706N1050714E  1AGVS04440200          EH            
7301310144000       0101305N1062617E  1ADVS04340010          EIMY THANH  02
7301310145000       0090302N1045254E  1ABVS04420450          EG            
7301310149000       0105039N1051131E  1ABVS04441245          EH            
7301310152000       0164014N1070750E  1ABVS01011320          EA            
7301310155000       0161721N1074521E  1ABVS01021100          EA            
7301310157000       0000000S0000000E  1AGVS01  0930          EH            
7301310158000       0000000S0000000E 20BJVS01  24007302011200EF            
7301310159000       0141344N1075952E  1AGVS02061520          EH            
7301310161000       0000000S0000000E 10BJVS02  24007302011200EF            
7301310162000       0110517N1062241E  1ABVS03251505          EA            
7301310163000       0000000S0000000E  7BBVS03  24007302011200EF            
7301310164000       0000000S0000000E 25BJVS03  24007302011200EF            
7301310166000       0000000S0000000E 12BBVS04  24007302011200EF            
7301310167000       0000000S0000000E 31BJVS04  24007302011200EF            
7301310174000       0130027N1091542E  1AAVS02102400          EHMY LE     01
7301310189000       0141523N1075806E  1AGVS02062225          EA            
7301310199000       0000000S0000000E  1DPVS    0300          EA            
7302010153000       0161754N1074458E  1AGVS01020015          EA            
7302010154000       0161806N1074613E  1AGVS01020020          EA            
7302010160000       0135743N1084341E  1AIVS02070210          EF            
7302010165000       0153844N1081600E  1ABVS01031030          EA            
7302010168000       0164027N1070723E  1ABVS01010930          EA            
7302010169000       0153600N1081241E  1ABVS01040500          EA            
7302010170000       0000000S0000000E 11BBVS01  12007302012400EF            
7302010171000       0000000S0000000E 18BJVS01  12007302012400EF            
7302010172000       0135817N1083355E  1ABVS02071130          EA            
7302010173000       0141152N1075804E  1AAVS02060720          EH            
7302010175000       0000000S0000000E  5BBVS02  12007302012400EF            
7302010176000       0000000S0000000E 18BJVS02  12007302012400EF            
7302010177000       0111627N1064725E  1ABVS03231100          EG            
7302010178000       0110056N1062541E  1ABVS03250825          EA            
7302010179000       0110233N1062042E  1ABVS03250555          EA            
7302010180000       0000000S0000000E  2BBVS03  12007302012400EF            
7302010181000       0000000S0000000E 11BJVS03  12007302012400EF            
7302010182000       0094800N1061725E  1AGVS04350735          EH            
7302010183000       0094657N1052608E  1ABVS04390405          EG            
7302010184000       0000000S0000000E  4BBVS04  12007302012400EF            
7302010185000       0000000S0000000E 23BJVS04  12007302012400EF            
7302010186000       0143732N1090333E  1ABVS02071800          EA            
7302010190000       0135845N1084336E  1AGVS02070045          EA            
7302010193000       0110301N1062313E  1ABVS03252010          EA            
7302020187000       0000000S0000000E  8BBVS01  00017302021200EF            
7302020188000       0000000S0000000E  3BJVS01  00017302021200EF            
7302020191000       0000000S0000000E  3BBVS02  00017302021200EF            
7302020192000       0000000S0000000E  2BJVS02  00017302021200EF            
7302020194000       0000000S0000000E  3BBVS03  00017302021200EF            
7302020195000       0000000S0000000E 10BJVS03  00017302021200EF            
7302020196000       0000000S0000000E  3BBVS04  00017302021200EF            
7302020197000       0000000S0000000E 18BJVS04  00017302021200EF            
7302020200000       0164233N1071019E  1ABVS01010210          EA            
7302020201000       0164033N1070901E  1ABVS01010325          EA            
7302020202000       0164227N1071023E  1ABVS01010300          EA            
7302020203000       0000000S0000000E 15BBVS01  12017302022400EF            
7302020204000       0000000S0000000E  6BJVS01  12017302022400EF            
7302020205000       0140055N1082607E  1ABVS02080245          EA            
7302020206000       0141930N1090400E  1ABVS02070215          EA            
7302020207000       0000000S0000000E  8BBVS02  12017302022400EF            
7302020208000       0000000S0000000E  7BJVS02  12017302022400EF            
7302020209000       0110233N1062035E  1ABVS03250400          EA            
7302020210000       0000000S0000000E  3BBVS03  12017302022400EF            
7302020211000       0000000S0000000E 26BJVS03  12017302022400EF            
7302020213000       0000000S0000000E 30BJVS04  12017302022400EF            
7302020219000       0111107N1073520E  1AAVS03182245          EHVO XU     01
7302020232000       0141326N1075839E  1AAVS02062230          EA            
7302020269000       0153844N1081600E  1AMVS01030545          EA            
7302020270000       0161552N1074242E  1ABVS01020700          EA            
7302020271000       0161506N1075727E  1ABVS01020200          EA            
7302020272000       0161712N1074059E  1AGVS01021010          EA            
7302020273000       0164236N1071125E  1ABVS01011300          EA            
7302020276000       0135845N1084336E  1AGVS02070045          EA            
7302020282000       0093227N1054852E  1ABVS04411115          EH            
7302020283000       0092148N1055155E  1ABVS04430945          EH            
7302030214000       0000000S0000000E  3BBVS01  12017302032400EF            
7302030215000       0000000S0000000E  3BJVS01  12017302032400EF            
7302030216000       0135931N1082741E  1AAVS02080630          EA            
7302030217000       0000000S0000000E  3BBVS02  12017302032400EF            
7302030218000       0000000S0000000E  4BJVS02  12017302032400EF            
7302030220000       0000000S0000000E  1BBVS03  12017302032400EF            
7302030221000       0000000S0000000E  1BJVS03  12017302032400EF            
7302030222000       0092312N1053042E  1AAVS04430200          EHVINH HUE  01
7302030224000       0000000S0000000E  6BBVS04  12017302032400EF            
7302030225000       0000000S0000000E  3BJVS04  12017302032400EF            
7302030226000       0161914N1072420E  1ABVS01021100          EA            
7302030227000       0161838N1072427E  1ABVS010207157302030945EA            
7302030236000       0105528N1062142E  1AMVS03251000          EHTRI BE    01
7302030265000       0112101N1073135E  1ABVS03191045          EH            
7302030274000       0000000S0000000E 11BBVS01  00017302031200EF            
7302030275000       0000000S0000000E 17BJVS01  00017302031200EF            
7302030278000       0000000S0000000E  3BJVS02  00017302031200EF            
7302030279000       0105630N1062024E  1AGVS032504157302030500EH            
7302030280000       0000000S0000000E  3BBVS03  00017302031200EF            
7302030281000       0000000S0000000E  3BJVS03  00017302031200EF            
7302030284000       0105500N1052558E  1ABVS04320005          EG            
7302030285000       0102405N1054411E  1AGVS04320430          EH            
7302030286000       0000000S0000000E  3BBVS04  00017302031200EF            
7302030287000       0000000S0000000E 10BJVS04  00017302031200EF            
7302030288000       0140754N1091328E  1AQVS02070600          EARADAR  201  
7302040228000       0151157N1084326E  1AIVS01050300          EL            
7302040229000       0153842N1081205E  1ABVS01030405          EA            
7302040230000       0000000S0000000E 10BBVS01  00017302041200EF            
7302040231000       0000000S0000000E 11BJVS01  00017302041200EF            
7302040233000       0000000S0000000E  3BJVS02  00017302041200EF            
7302040234000       0110821N1060652E  1ABVS03240015          EG            
7302040235000       0110834N1060745E  1ABVS03240015          EG            
7302040237000       0111438N1055603E  1ABVS03240630          EH            
7302040238000       0000000S0000000E  3BBVS03  00017302041200EF            
7302040239000       0000000S0000000E  3BJVS03  00017302041200EF            
7302040240000       0102700N1060821E  1AAVS04330845          EA            
7302040241000       0105056N1051310E  1ABVS04440100          EG            
7302040242000       0104932N1051218E  1ABVS04440110          EG            
7302040243000       0000000S0000000E  1BBVS04  00017302041200EF            
7302040244000       0000000S0000000E 12BJVS04  00017302041200EF            
7302040245000       0164259N1071033E  1ABVS01010945          EA            
7302040246000       0164227N1071023E  1ABVS01010945          EA            
7302040247000       0164033N1070750E  1ABVS01010845          EA            
7302040248000       0000000S0000000E  6BBVS01  12017302042400EF            
7302040249000       0000000S0000000E  7BJVS01  12017302042400EF            
7302040250000       0125214N1090512E  1ABVS02100130          EH            
7302040251000       0000000S0000000E  5BBVS02  12017302042400EF            
7302040252000       0000000S0000000E  3BJVS02  12017302042400EF            
7302040254000       0000000S0000000E  4BJVS03  12017302042400EF            
7302040255000       0093312N1052931E  1AIVS04391000          EF            
7302040256000       0000000S0000000E  4BBVS04  12017302042400EF            
7302040257000       0000000S0000000E  8BJVS04  12017302042400EF            
7302040259000       0144557N1084636E  1AGVS01052230          EA            
7302040262000       0141400N1075918E  1ABVS02061645          EA            
7302040268000       0105308N1053312E  1ABVS04312400          EG            
7302040296000       0135842N1084337E  1ABVS02072330          EA            
7302050212000       0000000S0000000E 11BBVS04  00017302051200EF            
7302050223000       0000000S0000000E 15BJVS04  00017302051200EF            
7302050253000       0105528N1053057E  1ABVS04320100          EH            
7302050258000       0161730N1074413E  1ABVS010200457302040130EA            
7302050260000       0000000S0000000E  6BBVS01  00017302051200EF            
7302050261000       0000000S0000000E  8BJVS01  00017302051200EF            
7302050263000       0000000S0000000E  4BJVS02  00017302051200EF            
7302050264000       0111332N1055636E  1AIVS03240330          EB            
7302050266000       0000000S0000000E  2BBVS03  00017302051200EF            
7302050267000       0000000S0000000E  5BJVS03  00017302051200EF            
7302050289000       0164551N1071609E  1AAVS010102307302050245EH            
7302050290000       0164206N1070956E  1ABVS01010300          EA            
7302050291000       0164632N1071614E  1ABVS01010820          ED            
7302050292000       0153906N1081426E  1ABVS01030700          EA            
7302050293000       0161700N1074733E  1ABVS01021030          EA            
7302050294000       0000000S0000000E 14BBVS01  12017302052400EF            
7302050295000       0000000S0000000E 14BJVS01  12017302052400EF            
7302050297000       0000000S0000000E  4BBVS02  12017302052400EF            
7302050298000       0000000S0000000E  6BJVS02  12017302052400EF            
7302050299000       0113500N1063705E  1ABVS03220630          EH            
7302050300000       0111453N1055603E  1AMVS03240930          EHPHOUC TAN 01
7302050301000       0000000S0000000E  4BBVS03  12017302052000EF            
7302050302000       0000000S0000000E 10BJVS03  12017302052400EF            
7302050304000       0000000S0000000E 22BBVS04  12017302052400EF            
7302050305000       0000000S0000000E 38BJVS04  12017302052400EF            
7302050306000       0144332N1085953E  1ABVS01052005          EA            
7302050307000       0164220N1071019E  1ABVS01012000          EA            
7302050308000       0164201N1070952E  1ABVS01011905          EA            
7302050309000       0164206N1071000E  1ABVS01011545          EA            
7302050310000       0164259N1071048E  1ABVS01011545          EA            
7302050318000       0095653N1053947E  1ABVS04401900          EICHU THIEN 01
7302060303000       0000000S0000000E  4BJVS04  00017302061200EF            
7302060311000       0000000S0000000E  9BBVS01  00017302061200EF            
7302060312000       0000000S0000000E 18BJVS01  00017302061200EF            
7302060313000       0000000S0000000E  4BBVS02  00017302061200EF            
7302060314000       0000000S0000000E  9BJVS02  00017302061200EF            
7302060315000       0113558N1063821E  1ABVS03220020          EABINH LONG 06
7302060316000       0000000S0000000E  4BBVS03  00017302061200EF            
7302060317000       0000000S0000000E  7BJVS03  00017302061200EF            
7302060319000       0000000S0000000E  1BBVS04  00017302061200EF            
7302060320000       0164014N1070736E  1ABVS01010925          EA            
7302060321000       0164236N1071125E  1ABVS01010020          EA            
7302060322000       0164247N1071259E  1ABVS01010345          EA            
7302060323000       0164259N1071027E  1ABVS01010340          EA            
7302060324000       0164225N1071154E  1ABVS01010320          EA            
7302060325000       0164220N1071009E  1ABVS01010315          EA            
7302060326000       0000000S0000000E 26BBVS01  12017302062400EF            
7302060327000       0000000S0000000E 29BJVS01  12017302062400EF            
7302060328000       0141250N1075837E  1AAVS02060930          EA            
7302060329000       0134502N1080212E  1AAVS020803007302061000EA            
7302060330000       0000000S0000000E  5BBVS02  12017302062400EF            
7302060331000       0110137N1062813E  1ABVS03250315          EG            
7302060332000       0113545N1063714E  1ABVS03220315          EA            
7302060333000       0000000S0000000E  8BBVS03  12017302062400EF            
7302060334000       0000000S0000000E 14BJVS03  12017302062400EF            
7302060335000       0102030N1061327E  1ABVS04330450          EA            
7302060336000       0102657N1045500E  1ABVS04441015          EH            
7302060337000       0000000S0000000E  6BBVS04  12017302062400EF            
7302060338000       0000000S0000000E 12BJVS04  12017302062400EF            
7302060340000       0164206N1070952E  1ABVS01010305          EA            
7302060346000       0141250N1075837E  1AAVS02061840          EA            
7302060353000       0102051N1061254E  1ABVS04331450          EA            
7302060602000       0000000S0000000E  9BJVS02  12017302062400EF            
7302070339000       0164014N1070736E  1ABVS01010210          EA            
7302070341000       0145226N1085439E  1ABVS01050500          EA            
7302070342000       0161633N1074430E  1ABVS01020225          EA            
7302070343000       0144018N1090422E  1AAVS01050510          EA            
7302070344000       0000000S0000000E 14BBVS01  00017302071200EF            
7302070345000       0000000S0000000E 18BBVS01  00017302071200EF            
7302070347000       0000000S0000000E  2BBVS02  00017302071200EF            
7302070348000       0000000S0000000E  7BJVS02  00017302071200EF            
7302070349000       0000000S0000000E  2BBVS03  00017302071200EF            
7302070350000       0000000S0000000E  5BJVS03  00017302071200EF            
7302070351000       0105315N1053312E  1ABVS04310320          EHH           
7302070352000       0102615N1045536E  1ABVS04440030          EA            
7302070354000       0000000S0000000E  4BBVS04  00017302071200EF            
7302070355000       0000000S0000000E 13BJVS04  00017302071200EF            
7302070356000       0164206N1070952E  1ABVS01010445          EA            
7302070357000       0164211N1070952E  1ABVS01010710          EA            
7302070358000       0164335N1071440E  1ABVS01010845          EA            
7302070359000       0163057N1072822E  1ABVS010210207302071100EA            
7302070360000       0164359N1071215E  1ABVS010108007302070850ED            
7302070361000       0000000S0000000E 10BBVS01  12017302072400EF            
7302070362000       0000000S0000000E  8BJVS01  12017302072400EF            
7302070363000       0000000S0000000E  8BJVS02  12017302072400EF            
7302070364000       0000000S0000000E  8BJVS03  12017302072400EF            
7302070365000       0000000S0000000E 15BBVS04  12017302072400EF            
7302070366000       0000000S0000000E 13BJVS04  12017302072400EF            
7302070371000       0125357N1081512E  1AMVS02111030          EHCUNG KIEM 01
7302070372000       0134456N1080217E  1AMVS02080240          EA            
7302070391000       0105147N1051928E  1ABVS04321300          EHCAM MUONG 10
7302070392000       0105246N1051744E  1ABVS04321250          EHDOI KIEU  10
7302070393000       0103012N1044703E  1ABVS04382020          EHLIEN DOI  01
7302070395000       0092504N1053352E  1AGVS04410430          EH            
7302070426000       0094037N1053431E  1ABVS04392330          EFLOMG MY   06
7302080367000       0153606N1081224E  1ABVS01040540          EA            
7302080368000       0153840N1081131E  1ABVS01030500          EA            
7302080369000       0000000S0000000E  7BBVS01  00017302081200EF            
7302080370000       0000000S0000000E 13BJVS01  00017302081200EF            
7302080373000       0000000S0000000E  2BBVS02  00017302081200EF            
7302080374000       0000000S0000000E  5BJVS02  00017302081200EF            
7302080375000       0113647N1063851E  1ABVS03220210          EH            
7302080376000       0111550N1062147E  1ABVS03230455          EATRI TAM   04
7302080377000       0000000S0000000E  4BBVS03  00017302081200EF            
7302080378000       0000000S0000000E  9BJVS03  00017302081200EF            
7302080379000       0164220N1071006E  1AGVS01010250          EA            
7302080380000       0163800N1070759E  1ABVS01010835          EA            
7302080381000       0155039N1081158E  1ABVS01030200          EA            
7302080382000       0150217N1085244E  1AMVS01050935          EADYC QUANG 01
7302080383000       0164636N1071627E  1ABVS010101257302080320ED            
7302080384000       0164312N1071048E  1ABVS01010215          EA            
7302080385000       0000000S0000000E 17BBVS01  12017302082400EF            
7302080386000       0000000S0000000E  9BJVS01  12017302082400EF            
7302080387000       0000000S0000000E  2BBVS02  12017302082400EF            
7302080388000       0000000S0000000E  2BBVS03  12017302082400EF            
7302080389000       0000000S0000000E 10BJVS03  12017302082400EF            
7302080390000       0102815N1045546E  1ABVS04440815          EH            
7302080394000       0105236N1052720E  1AGVS04320500          EH            
7302080396000       0105702N1052945E  1AIVS04320220          EB            
7302080397000       0100554N1060140E  1ABVS04361640          EH            
7302080398000       0102415N1061327E  1ABVS04331510          EINHI BINH  01
7302080399000       0103012N1044703E  1ABVS04381500          EH            
7302080400000       0000000S0000000E 30BBVS04  12017302082400EF            
7302080401000       0000000S0000000E 30BJVS04  12017302082400EF            
7302080402000       0164233N1071019E  1ABVS01010440          EA            
7302080403000       0164225N1071154E  1ABVS01011300          EA            
7302080404000       0164206N1070952E  1ABVS01010345          EA            
7302080405000       0164206N1070952E  1ABVS010101105         EA            
7302080406000       0164203N1070950E  1ABVS010105457302081430EA            
7302080407000       0164614N1071604E  1ABVS01011940          ED            
7302080408000       0164600N1071539E  1ABVS01011940          ED            
7302080411000       0105848N1080524E  1ABVS02170900          EH            
7302080416000       0105524N1053045E  1ABVS04322100          EA            
7302080417000       0105127N1053336E  1ABVS04312300          EHTAN THANH 10
7302080423000       0094153N1053701E  1ABVS04392200          EA            
7302080427000       0145325N1085450E  1AGVS01051720          EA NUI THO  10
7302080457000       0161627N1074506E  1AGVS010222007302091300EA            
7302090409000       0000000S0000000E 14BBVS01  00017302091200EF            
7302090410000       0000000S0000000E 16BJVS01  00017302091200EF            
7302090412000       0000000S0000000E  2BBVS02  00017302091200EF            
7302090413000       0000000S0000000E  6BJVS02  00017302091200EF            
7302090414000       0000000S0000000E  2BBVS03  00017302091200EF            
7302090415000       0000000S0000000E 11BJVS03  00017302091200EF            
7302090420000       0101841N1061028E  1AGVS04360200          EH            
7302090421000       0101019N1043930E  1ABVS04380315          EA            
7302090424000       0000000S0000000E  6BBVS04  00017302091200EF            
7302090425000       0000000S0000000E 11BJVS04  00017302091200EF            
7302090428000       0161856N1072410E  1ABVS01020430          EA            
7302090429000       0164542N1071520E  1ABVS01010600          ED            
7302090430000       0164212N1071044E  1ABVS010100157302090900EA            
7302090431000       0164252N1071031E  1ABVS01010405          EA            
7302090432000       0164236N1071017E  1ABVS01010120          EA            
7302090433000       0164157N1071013E  1ABVS01010130          EA            
7302090434000       0164206N1071013E  1ABVS01010405          EA            
7302090435000       0164031N1070813E  1ABVS01010845          EA            
7302090436000       0000000S0000000E 10BBVS01  12017302092400EF            
7302090437000       0000000S0000000E 13BJVS01  12017302092400EF            
7302090438000       0134445N1074814E  1AGVS02080800          EA            
7302090439000       0000000S0000000E  6BBVS02  12017302092400EF            
7302090440000       0000000S0000000E  8BJVS02  12017302092400EF            
7302090441000       0113607N1063848E  1ABVS03220845          EH            
7302090442000       0000000S0000000E  4BBVS03  12017302092400EF            
7302090443000       0000000S0000000E  9BJVS03  12017302092400EF            
7302090444000       0093435N1051829E  1ABVS04391105          EHBINH LOC  10
7302090445000       0103441N1043607E  1ABVS04381530          EHLIEN DOI  10
7302090446000       0103100N1043900E  1ABVS04381530          EH          10
7302090447000       0100023N1062930E  1ABVS04341730          EITHANH PHU 01
7302090448000       0093338N1052657E  1ABVS04392000          EIKIEN THIEN01
7302090449000       0000000S0000000E 19BBVS04  12017302092400EF            
7302090450000       0000000S0000000E 26BJVS04  12017302092400EF            
7302090451000       0164305N1071031E  1ABVS01011340          EA            
7302090452000       0164252N1071031E  1ABVS01011400          EA            
7302090453000       0164236N1071125E  1ABVS01011350          EA            
7302090454000       0164224N1071006E  1ABVS01010810          EA            
7302090455000       0163552N1071633E  1ABVS01021345          EA            
7302090458000       0153910N1081429E  1ABVS01031645          EH            
7302090459000       0144448N1090239E  1ABVS01050800          EA            
7302090476000       0135008N1074802E  1AGVS020824007302100900EA            
7302100456000       0145459N1085411E  1ABVS01050400          EA            
7302100460000       0000000S0000000E  6BBVS01  00017302101200EF            
7302100461000       0000000S0000000E 19BJVS01  00017302101200EF            
7302100462000       0142354N1090037E  1ABVS02070225          EA            
7302100463000       0000000S0000000E  3BBVS02  00017302101200EF            
7302100464000       0000000S0000000E  7BJVS02  00017302101200EF            
7302100465000       0000000S0000000E  4BBVS03  00017302101200EF            
7302100466000       0000000S0000000E 10BJVS03  00017302101200EF            
7302100467000       0111605N1063750E  1BIVS03230115          EN            
7302100468000       0100641N1060054E  1ABVS04360250          EH            
7302100469000       0000000S0000000E  5BBVS04  00017302101200EF            
7302100470000       0000000S0000000E 13BJVS04  00017302101200EF            
7302100471000       0161618N1074417E  1ABVS010204007302100600EA            
7302100472000       0161700N1074303E  1ABVS010208107302100900EA            
7302100473000       0164023N1070821E  1ABVS01010450          EA            
7302100474000       0145459N1085501E  1AIVS01050900          EB            
7302100475000       0000000S0000000E  9BJVS01  12017302102400EF            
7302100477000       0134445N1080243E  1AGVS02080930          EH            
7302100478000       0000000S0000000E  2BJVS02  12017302102400EF            
7302100479000       0113529N1063834E  1ABVS03221000          EH            
7302100480000       0000000S0000000E  2BBVS03  12017302102400EF            
7302100481000       0000000S0000000E  4BJVS03  12017302102400EF            
7302100482000       0105522N1053051E  1ABVS04320530          EA CAI CAI  10
7302100483000       0105522N1053051E  1ABVS04321040          EA            
7302100484000       0105003N1052039E  1AGVS04320630          EA            
7302100485000       0094040N1054516E  1ABVS04411145          EA            
7302100486000       0094037N1053437E  1ABVS04390530          EILONG MY   06
7302100487000       0093444N1051819E  1ABVS04390130          EH            
7302100488000       0093444N1051819E  1ABVS04391340          EH            
7302100489000       0092939N1050112E  1AMVS04380115          EJTAN HOA   01
7302100490000       0000000S0000000E 16BBVS04  12017302102400EF            
7302100491000       0000000S0000000E 39BJVS04  12017302102400EF            
7302100492000       0164259N1071050E  1ABVS01010430          EA            
7302100493000       0164236N1071044E  1ABVS01010905          EA            
7302100494000       0164236N1071050E  1ABVS01010800          EA            
7302100495000       0164227N1071009E  1ABVS01012145          EA            
7302100496000       0144536N1090128E  1ABVS01051800          EH            
7302100497000       0144452N1090249E  1ABVS01051930          EA            
7302100504000       0092658N1050306E  1ABVS04381930          EHHIEU LE   10
7302100508000       0164227N1071006E  1ABVS01010430          EA            
7302100509000       0164227N1071023E  1ABVS01010835          EA            
7302100510000       0164227N1071023E  1ABVS01010900          EA            
7302100511000       0164216N1071006E  1ABVS01010800          EA            
7302100512000       0164206N1070956E  1ABVS01010435          EA            
7302100513000       0164206N1070956E  1ABVS01010805          EA            
7302100514000       0161824N1072557E  1ABVS01020930          EA            
7302100515000       0161753N1072331E  1ABVS01022300          EA            
7302100526000       0164200N1071044E  1ABVS010122007302111000EA            
7302100532000       0105913N1080524E  1AGVS02172345          EH            
7302100550000       0135002N1074748E  1AGVS020824007302111100EA            
7302100551000       0141116N1075729E  1AGVS02062400          EA            
7302110498000       0164600N1071529E  1ABVS01010645          ED            
7302110499000       0000000S0000000E  9BBVS01  00017302111200EF            
7302110500000       0000000S0000000E  7BJVS01  00017302111200EF            
7302110501000       0000000S0000000E  1BBVS02  00017302111200EF            
7302110502000       0000000S0000000E  5BBVS03  00017302111200EF            
7302110503000       0000000S0000000E  8BJVS03  00017302111200EF            
7302110505000       0000000S0000000E  5BJVS02  00017302111200EF            
7302110506000       0000000S0000000E  1BBVS04  00017302111200EF            
7302110507000       0000000S0000000E  3BJVS04  00017302111200EF            
7302110516000       0164600N1071529E  1ABVS01010645          ED            
7302110517000       0153534N1081230E  1ABVS01040100          EA            
7302110518000       0164211N1071000E  1ABVS01010330          EA            
7302110519000       0164248N1071027E  1AGVS01010650          EA            
7302110520000       0164202N1070812E  1ABVS01010905          EA            
7302110521000       0164305N1071037E  1ABVS01010730          EA            
7302110522000       0164557N1071515E  1ABVS01010810          ED            
7302110523000       0164248N1071033E  1ABVS01011100          EA            
7302110524000       0164233N1071019E  1ABVS01010530          EA            
7302110525000       0164632N1071631E  1ABVS01010645          ED            
7302110527000       0163954N1070918E  1ABVS01011035          EA            
7302110528000       0164233N1070910E  1ABVS01011200          EA            
7302110529000       0164605N1071523E  1AGVS01010920          ED            
7302110530000       0000000S0000000E 33BBVS01  12017302112400EF            
7302110531000       0000000S0000000E 28BJVS01  12017302112400EF            
7302110533000       0000000S0000000E  4BBVS02  12017302112400EF            
7302110534000       0000000S0000000E  4BJVS02  12017302112400EF            
7302110535000       0000000S0000000E  7BBVS03  12017302112400EF            
7302110536000       0000000S0000000E 16BJVS03  12017302112400EF            
7302110537000       0093441N1051825E  1ABVS043912007302111700EGBINH LOC  10
7302110538000       0000000S0000000E  3BBVS04  12017302112400EF            
7302110539000       0000000S0000000E 10BJVS04  12017302112400EF            
7302110540000       0164227N1071023E  1ABVS01012335          EA            
7302110542000       0154702N1081935E  1ARVS01031900          EIPHVONG HOA01
7302110543000       0164336N1071233E  1ABVS01011615          EA            
7302110544000       0164031N1070750E  1ABVS01011315          EA            
7302110545000       0164054N1070825E  1ABVS01011850          EA            
7302110546000       0164600N1071539E  1ABVS01012230          ED            
7302110547000       0164031N1070750E  1ABVS01011520          EA            
7302110553000       0105752N1062924E  1ABVS03252030          EO            
7302120541000       0164203N1071036E  1ABVS01010320          EA            
7302120548000       0000000S0000000E 13BBVS01  00017302121200EF            
7302120549000       0000000S0000000E 12BJVS01  00017302121200EF            
7302120552000       0000000S0000000E  5BJVS02  00017302121200EF            
7302120554000       0110827N1063933E  1ABVS032304207302120520EH            
7302120555000       0000000S0000000E  4BBVS03  00012302121200EF            
7302120556000       0000000S0000000E  5BJVS03  00017302121200EF            
7302120557000       0000000S0000000E  4BBVS04  00017302121200EF            
7302120558000       0000000S0000000E 11BJVS04  00017302121200EF            
7302120559000       0164557N1071515E  1ABVS01010300          ED            
7302120560000       0143948N1090252E  1ABVS01050710          EA            
7302120561000       0144008N1090208E  1ABVS01050630          EA            
7302120562000       0144005N1090231E  1ABVS01050745          EA            
7302120563000       0161636N1074507E  1ABVS01020150          EA            
7302120564000       0164144N1070909E  1ABVS01010610          EA            
7302120565000       0161636N1074507E  1ABVS01020150          EA            
7302120566000       0164230N1070910E  1ABVS01010500          EA            
7302120567000       0164216N1071006E  1ABVS01011220          EA            
7302120568000       0164248N1071031E  1ABVS01010225          EA            
7302120569000       0000000S0000000E  7BBVS01  12017302122400EF            
7302120570000       0000000S0000000E 17BJVS01  12017302122400EF            
7302120571000       0000000S0000000E  6BBVS02  12017302122400EF            
7302120572000       0000000S0000000E  7BJVS02  12017302122400EF            
7302120573000       0000000S0000000E  7BBVS03  12017302122400EF            
7302120574000       0000000S0000000E  2BJVS03  12017302122400EF            
7302120575000       0094120N1053638E  1AGVS04390805          EA            
7302120576000       0101825N1063312E  1ABVS04300630          EH            
7302120577000       0094037N1053421E  1ABVS04390600          EILONG MY   06
7302120578000       0000000S0000000E  6BBVS04  12017302122400EF            
7302120579000       0000000S0000000E 30BJVS04  12017302122400EF            
7302120580000       0164551N1071515E  1ABVS01010330          ED            
7302120581000       0164033N1070754E  1ABVS01011220          EA            
7302120582000       0163804N1070751E  1ABVS01011225          EA            
7302120583000       0164054N1070750E  1ABVS01011700          EA            
7302120584000       0164729N1071506E  1ABVS01011140          ED            
7302120585000       0164636N1071627E  1ABVS01011145          ED            
7302120586000       0164624N1071328E  1AGVS01012115          EH            
7302120594000       0135025N1074811E  1ABVS02080220          EA            
7302120621000       0093441N1051825E  1ABVS04392130          EHBINH LOC  10
7302120622000       0093441N1051825E  1ABVS04392300          EHBINH LONG 10
7302130587000       0164706N1071524E  1AGVS01010115          ED            
7302130588000       0164614N1071527E  1ABVS01010220          ED            
7302130589000       0164233N1071006E  1ABVS01010045          EA            
7302130590000       0164036N1070915E  1ABVS01010250          EA            
7302130591000       0000000S0000000E  9BBVS01  00017302131200EF            
7302130592000       0000000S0000000E 20BJVS01  00017302131200EF            
7302130593000       0141403N1075952E  1AGVS02060220          EA            
7302130595000       0000000S0000000E  4BBVS02  00017302131200EF            
7302130596000       0000000S0000000E  6BJVS02  00017302131200EF            
7302130597000       0115058N1070615E  1ABVS03210200          EH            
7302130598000       0000000S0000000E  6BBVS03  00017302131200EF            
7302130599000       0000000S0000000E  7BJVS03  00017302131200EF            
7302130600000       0000000S0000000E  2BBVS04  00017302131200EF            
7302130601000       0000000S0000000E  9BJVS04  00017302131200EF            
7302130603000       0164805N1071440E  1ABVS01010750          ED            
7302130604000       0164223N1071014E  1ABVS01010120          EA            
7302130605000       0164216N1070956E  1ABVS01011005          EA            
7302130606000       0164206N1071000E  1ABVS01011040          EA            
7302130607000       0164054N1070750E  1ABVS01010555          EA            
7302130608000       0164033N1070754E  1ABVS01010815          EA            
7302130609000       0164021N1070824E  1ABVS01011235          EA            
7302130610000       0163148N1072611E  1ABVS01020315          EA            
7302130611000       0155127N1080441E  1AGVS01030705          EA            
7302130612000       0153842N1081205E  1ABVS01030410          EA            
7302130613000       0000000S0000000E 13BBVS01  12017302132400EF            
7302130614000       0000000S0000000E 27BJVS01  12017302132400EF            
7302130615000       0000000S0000000E  3BMVS02  12017302132400EF            
7302130616000       0000000S0000000E  6BJVS02  12017302132400EF            
7302130617000       0000000S0000000E  1BBVS03  12017302132400EF            
7302130618000       0000000S0000000E  3BJVS03  12017302132400EF            
7302130619000       0105526N1053029E  1AMVS04320555          EACA VANG   01
7302130620000       0105250N1051740E  1ABVS04320630          EGCOI CIEU  10
7302130623000       0085915N1050401E  1AGVS04420300          EA            
7302130624000       0105236N1052130E  1ABVS04321030          EH            
7302130625000       0105133N1053342E  1ABVS04311100          EH            
7302130626000       0000000S0000000E 16BBVS04  12017302132400EF            
7302130627000       0000000S0000000E 30BJVS04  12017302132400EF            
7302130628000       0163943N1071059E  1ABVS01010810          EA            
7302130629000       0162106N1073556E  1ABVS01021015          EA            
7302130630000       0164121N1070915E  1ABVS01011100          EA            
7302130631000       0151018N1084135E  1ABVS01052215          EA            
7302130633000       0164211N1070950E  1ABVS01011700          EA            
7302130639000       0140252N1082048E  1ABVS02082300          EA            
7302130642000       0111635N1062147E  1ABVS03230545          EA            
7302130643000       0103011N1063320E  1AGVS03281020          EH            
7302130646000       0084541N1051144E  1ABVS04420745          EA            
7302130656000       0115024N1065617E  1ABVS03212310          EH            
7302140632000       0161645N1073840E  1ABVS01020115          EA            
7302140634000       0154948N1080332E  1ABVS010303407302140430EA            
7302140635000       0161628N1074233E  1ABVS01020245          EA            
7302140636000       0164216N1071006E  1ABVS01010230          EA            
7302140637000       0000000S0000000E 13BBVS01  00017302141200EF            
7302140638000       0000000S0000000E 19BJVS01  00017302141200EF            
7302140640000       0000000S0000000E  2BBVS02  00017302141200EF            
7302140641000       0000000S0000000E  8BJVS02  00017302141200EF            
7302140644000       0000000S0000000E 12BBVS03  00017302141200EF            
7302140645000       0000000S0000000E 11BJVS03  00017302141200EF            
7302140647000       0102438N1061357E  1ABVS04330400          EH            
7302140648000       0000000S0000000E  2BBVS04  00017302141200EF            
7302140649000       0000000S0000000E  4BJVS04  00017302141200EF            
7302140650000       0164614N1071339E  1AGVS01010715          EH            
7302140651000       0164220N1071006E  1ABVS01011210          EA            
7302140652000       0000000S0000000E  8BBVS01  12017302142400EF            
7302140653000       0000000S0000000E 10BJVS01  12017302142400EF            
7302140654000       0000000S0000000E  2BBVS02  12017302142400EF            
7302140655000       0000000S0000000E  8BJVS02  12017302142400EF            
7302140657000       0113539N1063615E  1ABVS03221005          EH            
7302140658000       0105603N1070557E  1ABVS03260600          EH            
7302140659000       0000000S0000000E  2BBVS03  12017302142400EF            
7302140660000       0000000S0000000E  6BJVS03  12017302142400EF            
7302140661000       0105154N1053338E  1AGVS04310730          EA            
7302140662000       0094133N1053629E  1AAVS043903207302141000EA            
7302140663000       0000000S0000000E 21BBVS04  12017302142400EF            
7302140664000       0000000S0000000E 27BJVS04  12017302142400EF            
7302140666000       0151622N1085136E  1ABVS010520457202150230EA            
7302140667000       0164635N1071359E  1ABVS01011625          EH            
7302140668000       0164650N1071342E  1ABVS01012030          ED            
7302140669000       0164624N1071345E  1ABVS010110357302141130ED            
7302140670000       0155003N1080928E  1ABVS01032205          EA            
7302140686000       0164214N1070956E  1ABVS01012330          EA            
7302140709000       0110933N1063928E  1AIVS03230635          EB            
7302150665000       0151359N1084729E  1ABVS01050245          EG            
7302150671000       0000000S0000000E 17BBVS01  00017302151200EF            
7302150672000       0000000S0000000E 13BJVS01  00017302151200EF            
7302150673000       0142205N1075505E  1AGVS02060530          EH            
7302150674000       0143319N1090325E  1ABVS02070005          EH            
7302150675000       0000000S0000000E  5BBVS02  00017302151200EF            
7302150676000       0000000S0000000E 12BJVS02  00017302151200EF            
7302150677000       0000000S0000000E  7BBVS03  00017302151200EF            
7302150678000       0000000S0000000E  3BJVS03  00017302151200EF            
7302150679000       0093401N1051905E  1ABVS04390815          EH            
7302150680000       0093643N1053159E  1ABVS04390520          EG            
7302150681000       0000000S0000000E  7BBVS04  00017302151200EF            
7302150682000       0000000S0000000E  1BJVS04  00017302151200EF            
7302150683000       0164703N1071524E  1ABVS01010345          EH            
7302150684000       0164551N1071416E  1ABVS01010345          ED            
7302150685000       0164309N1071044E  1ABVS01010040          EA            
7302150687000       0164122N1070808E  1ABVS01010445          EA            
7302150688000       0163145N1072214E  1ABVS01020755          EH            
7302150689000       0161554N1074205E  1ABVS010202007302150400EA            
7302150690000       0144219N1090347E  1AJVS01051000          EA            
7302150691000       0000000S0000000E 10BBVS01  12017302152400EF            
7302150692000       0000000S0000000E 10BJVS01  12017302152400EF            
7302150693000       0000000S0000000E  1BBVS03  12017302152400EF            
7302150694000       0000000S0000000E  4BJVS03  12017302152400EF            
7302150695000       0105034N1051228E  1ABVS04440345          EC            
7302150696000       0101928N1061359E  1ABVS04331100          EGTAM HOA   10
7302150697000       0000000S0000000E 11BBVS04  12017302152400EF            
7302150698000       0000000S0000000E 22BJVS04  12017302152400EF            
7302150699000       0164624N1071341E  1ABVS01011800          ED            
7302150700000       0144058N1090345E  1AAVS01052010          AE            
7302150702000       0161811N1072339E  1ABVS01022325          EA            
7302150703000       0163033N1072536E  1ABVS01022300          EH            
7302150710000       0102900N1045517E  1ABVS04441800          EA            
7302150711000       0102854N1045523E  1ABVS04441815          EH            
7302150712000       0100413N1060421E  1ABVS04361230          EHHOI LOC   10
7302150717000       0095317N1052900E  1ABVS04391330          EHHOA HUNG  02
7302150718000       0094135N1054045E  1ABVS04391500          EG          10
7302150719000       0103024N1055810E  1ABVS04312120          EHLIEN DOI  01
7302150747000       0144003N1090412E  1AAVS010524007302161000AESA HUYNH  01
7302150753000       0141407N1075958E  1AGVS020623007302161100EA            
7302160701000       0153842N1081205E  1ABVS01030320          EA            
7302160704000       0000000S0000000E 10BBVS01  00017302161200EF            
7302160705000       0000000S0000000E 16BJVS01  00017302161200EF            
7302160706000       0142227N1090225E  1ABVS02070010          EA            
7302160707000       0000000S0000000E  5BBVS02  00017302161200EF            
7302160708000       0000000S0000000E 11BJVS02  00017302161200EF            
7302160713000       0113238N1063651E  1AIVS03220235          EL            
7302160714000       0113042N1063717E  1AIVS03220300          EL            
7302160715000       0000000S0000000E  6BBVS03  00017302161200EF            
7302160716000       0000000S0000000E  9BJVS03  00017302161200EF            
7302160720000       0105155N1051115E  1ABVS04320120          ECTAN CHAN    
7302160721000       0000000S0000000E 12BBVS04  00017302161200EF            
7302160722000       0000000S0000000E  4BJVS04  00017302161200EF            
7302160723000       0164637N1071422E  1ABVS01010900          ED            
7302160724000       0164637N1071359E  1ABVS01011015          ED            
7302160725000       0164309N1071044E  1ABVS01010745          EA            
7302160726000       0164248N1071033E  1ABVS01010900          EA            
7302160727000       0164248N1071033E  1ABVS01011000          EA            
7302160728000       0164225N1071154E  1ABVS01010120          EA            
7302160729000       0164207N1070929E  1ABVS01010515          EA            
7302160730000       0161630N1074453E  1ABVS01020335          EA            
7302160731000       0161623N1074506E  1ABVS01021130          EA            
7302160732000       0144147N1090422E  1AAVS01050710          AE            
7302160733000       0000000S0000000E  9BBVS01  12017302162400EF            
7302160734000       0000000S0000000E 20BJVS01  12017302162400EF            
7302160735000       0140418N1075608E  1ABVS02080415          EH          06
7302160736000       0134842N1080030E  1ABVS02080950          EA            
7302160737000       0000000S0000000E  1BBVS02  12017302162400EF            
7302160738000       0000000S0000000E  1BJVS02  12017302162400EF            
7302160739000       0111138N1063704E  1ABVS03231000          EFLAI KHE   06
7302160740000       0000000S0000000E 13BBVS03  12017302162400EF            
7302160741000       0000000S0000000E  7BJVS03  12017302162400EF            
7302160742000       0102917N1060253E  1ABVS04331220          EH            
7302160743000       0100956N1055334E  1AGVS04460430          EH            
7302160744000       0000000S0000000E 23BBVS04  12017302162400EF            
7302160745000       0000000S0000000E 23BJVS04  12017302162400EF            
7302160746000       0164309N1071044E  1ABVS01012015          EA            
7302160748000       0164203N1070923E  1ABVS01012140          EA            
7302160749000       0164122N1071301E  1ABVS01012300          EA            
7302160754000       0140507N1081801E  1AGVS020804457302161000EH            
7302160759000       0102510N1061354E  1ABVS04331630          EA            
7302160760000       0093755N1052604E  1ABVS04391155          EA            
7302160761000       0100957N1043838E  1ABVS04382400          EA            
7302160790000       0164229N1071006E  1ABVS01012200          EA            
7302170750000       0144121N1090441E  1AJVS01050505          EA            
7302170751000       0000000S0000000E 10BBVS01  00017302171200EF            
7302170752000       0000000S0000000E 10BJVS01  00017302171200EF            
7302170755000       0000000S0000000E  1BBVS02  00017302171200EF            
7302170756000       0000000S0000000E  5BJVS02  00017302171200EF            
7302170757000       0000000S0000000E  2BBVS03  00017302171200EF            
7302170758000       0000000S0000000E  1BJVS03  00017302171200EF            
7302170762000       0000000S0000000E  1BBVS03  00017302171200EF            
7302170763000       0000000S0000000E 12BJVS03  00017302171200EF            
7302170764000       0164122N1070808E  1ABVS01012345          EA            
7302170765000       0161811N1072339E  1ABVS01020755          EA            
7302170766000       0164203N1070923E  1ABVS01012010          EA            
7302170767000       0164256N1071031E  1ABVS01011400          EA            
7302170770000       0164103N1070754E  1ABVS01012340          EA            
7302170774000       0143450N1090244E  1ABVS02072350          EA            
7302170777000       0104439N1062606E  1ANVS03281315          EILUONG HOA 01
7302170778000       0111426N1063834E  1ABVS03230940          EA            
7302170786000       0164309N1071044E  1ABVS01010600          EA            
7302170787000       0164255N1071706E  1ABVS01011115          ED            
7302170788000       0164256N1071031E  1ABVS01011110          EA            
7302170789000       0164229N1071019E  1ABVS01011110          EA            
7302170791000       0164216N1071006E  1ABVS01010700          EA            
7302170792000       0164200N1071040E  1ABVS01010635          EA            
7302170793000       0164201N1070925E  1ABVS01010040          EA            
7302170794000       0164201N1070925E  1ABVS01010850          EA            
7302170795000       0164129N1070902E  1ABVS01010630          EA            
7302170796000       0164122N1071301E  1ABVS01010700          EA            
7302170797000       0164121N1070915E  1ABVS01010150          EA            
7302170798000       0164121N1070915E  1ABVS01011110          EA            
7302170799000       0164122N1070808E  1ABVS01010800          EA            
7302170800000       0164109N1070754E  1ABVS01010115          EA            
7302170801000       0164106N1070909E  1ABVS01010350          EA            
7302170802000       0164106N1070909E  1ABVS01011110          EA            
7302170803000       0164106N1070909E  1ABVS01011340          EA            
7302170804000       0164010N1070834E  1ABVS01010030          EA            
7302170805000       0163929N1070709E  1ABVS01010340          EA            
7302170806000       0163920N1070715E  1ABVS01010340          EA            
7302170807000       0154036N1081220E  1ABVS01030530          EA            
7302170808000       0153918N1081205E  1ABVS01030405          EA            
7302170809000       0144900N1090000E  1AGVS01050715          EA            
7302170810000       0143950N1090405E  1AGVS01050205          EA            
7302170811000       0000000S0000000E 18BBVS01  12017302172400EF            
7302170812000       0000000S0000000E 11BJVS01  12017302172400EF            
7302170813000       0000000S0000000E  7BBVS02  12017302172400EF            
7302170814000       0000000S0000000E  7BJVS02  12017302172400EF            
7302170815000       0113539N1063615E  1ABVS03220815          EH            
7302170816000       0113526N1063529E  1ABVS03220520          EH            
7302170817000       0110838N1063838E  1ABVS03230050          EA            
7302170818000       0000000S0000000E  5BBVS03  12017302172400EF            
7302170819000       0000000S0000000E  8BJVS03  12017302172400EF            
7302170820000       0105304N1053310E  1ABVS04311400          EH            
7302170821000       0102258N1042756E  1ABVS04381450          EA            
7302170822000       0102315N1042809E  1ABVS04381400          EG            
7302170823000       0095012N1052536E  1ABVS04391310          EG            
7302170824000       0094206N1052612E  1ABVS04391330          EA            
7302170825000       0090145N1050722E  1ABVS04421830          EG            
7302170826000       0000000S0000000E  8BBVS04  12017302172400EF            
7302170827000       0000000S0000000E 16BJVS04  1201      2400EF            
7302170833000       0164103N1071412E  1ABVS010123335         EA            
7302170850000       0102505N1042647E  1ABVS04382330          EH            
7302180768000       0163803N1070856E  1ABVS01010040          EA            
7302180769000       0163955N1070821E  1ABVS01010135          EA            
7302180771000       0164050N1070838E  1ABVS01010135          EA            
7302180772000       0000000S0000000E  8BBVS01  00017302181200EF            
7302180773000       0000000S0000000E 14BJVS01  00017302181200EF            
7302180775000       0000000S0000000E  7BBVS02  00017302181200EF            
7302180776000       0000000S0000000E 10BJVS02  00017302181200EF            
7302180779000       0111156N1060745E  1ABVS03240055          EG            
7302180780000       0110830N1060745E  1ABVS03240055          EG            
7302180781000       0000000S0000000E 12BBVS03  00017302181200EF            
7302180782000       0000000S0000000E 14BJVS03  00017302181200EF            
7302180783000       0105129N1051304E  1ABVS04320300          EA            
7302180784000       0000000S0000000E  7BBVS04  00017302181200EF            
7302180785000       0000000S0000000E  2BJVS04  00017302181200EF            
7302180828000       0164818N1071451E  1AGVS01010750          ED            
7302180829000       0164248N1071041E  1ABVS01010450          EA            
7302180830000       0164248N1071033E  1ABVS01010245          EA            
7302180831000       0164225N1071154E  1ABVS01010245          EA            
7302180832000       0164106N1070909E  1ABVS01011120          EA            
7302180834000       0163920N1070732E  1ABVS01010410          EA            
7302180835000       0163911N1070853E  1ABVS01010850          EA            
7302180836000       0161825N1072452E  1ABVS01020930          EA            
7302180837000       0161823N1072423E  1ABVS01020330          EA            
7302180838000       0161623N1074506E  1ABVS010204057302180700EA            
7302180839000       0154906N1080921E  1ABVS01030425          EA            
7302180840000       0150748N1084506E  1ABVS01050315          EH            
7302180841000       0150929N1084147E  1ABVS01050600          EA            
7302180842000       0144018N1090459E  1AGVS01050700          EA            
7302180843000       0000000S0000000E 13BBVS01  12017302182400EF            
7302180844000       0000000S0000000E 25BJVS01  12017302182400EF            
7302180845000       0000000S0000000E  4BBVS02  12017302182400EF            
7302180846000       0000000S0000000E  3BJVS02  12017302182400EF            
7302180847000       0111608N1055817E  1ABVS03240645          EH            
7302180848000       0111453N1055603E  1ABVS03240625          EH            
7302180849000       0000000S0000000E  2BJVS03  12017302182400EF            
7302180851000       0105049N1051310E  1ABVS04440500          EG            
7302180852000       0000000S0000000E 21BBVS04  12017302182400EF            
7302180853000       0000000S0000000E 36BJVS04  12017302182400EF            
7302180869000       0142231N1075438E  1AGVS02060325          EH            
7302180878000       0164122N1070808E  1ABVS01011110          EA            
7302180880000       0164201N1070942E  1ABVS01011200          EA            
7302180881000       0164248N1071033E  1ABVS01011235          EA            
7302180882000       0164305N1071037E  1ABVS01011255          EA            
7302180883000       0164157N1070906E  1ABVS01012245          EA            
7302180887000       0142718N1090258E  1ABVS02070920          EA            
7302180892000       0093336N1052657E  1ABVS04391035          EFKIEN THIEN07
7302180893000       0105524N1053047E  1ABVS04321830          EGCAI CAI   10
7302180894000       0105204N1053123E  1ABVS04321800          EA            
7302180895000       0102819N1061524E  1ABVS04331450          EH            
7302190854000       0161829N1072427E  1ABVS01021045          EA            
7302190855000       0163037N1072559E  1ABVS01021115          EA            
7302190856000       0164248N1071041E  1ABVS01011120          EA            
7302190857000       0164236N1071046E  1ABVS01011250          EA            
7302190858000       0164248N1071041E  1ABVS01011700          EA            
7302190859000       0164216N1070956E  1ABVS01012330          EA            
7302190872000       0114215N1070540E  1ABVS03211340          EH            
7302190875000       0102625N1045626E  1ABVS04441350          EA            
7302190879000       0164103N1070754E  1ABVS01011930          EA            
7302190884000       0153918N1081709E  1ABVS01030145          EA            
7302190885000       0000000S0000000E 11BBVS01  00017302191200EF            
7302190886000       0000000S0000000E  5BJVS01  00017302191200EF            
7302190888000       0000000S0000000E  2BBVS02  00017302191200EF            
7302190889000       0000000S0000000E  6BJVS02  00017302191200EF            
7302190890000       0000000S0000000E  7BBVS03  00017302191200EF            
7302190891000       0000000S0000000E  4BJVS03  00017302191200EF            
7302190896000       0105232N1052729E  1AGVS04320310          EA            
7302190897000       0000000S0000000E  2BBVS04  00017302191200EF            
7302190898000       0164305N1071037E  1ABVS01010840          EA            
7302190899000       0164223N1071009E  1ABVS01010700          EA            
7302190900000       0164206N1070956E  1ABVS01010315          EA            
7302190901000       0164157N1070909E  1ABVS01010700          EA            
7302190902000       0164122N1070808E  1ABVS01010850          EA            
7302190903000       0163821N1071045E  1ABVS01010455          EA            
7302190904000       0163033N1072536E  1ABVS01021135          EH            
7302190905000       0143952N1090459E  1AGVS01050420          EA            
7302190906000       0143933N1090312E  1AGVS01050620          EA            
7302190907000       0000000S0000000E 21BBVS01  12017302192400EF            
7302190908000       0000000S0000000E 21BJVS01  12017302192400EF            
7302190909000       0142231N1090154E  1ABVS02070645          EA            
7302190910000       0000000S0000000E  3BBVS02  12017302192400EF            
7302190911000       0000000S0000000E  6BJVS02  12017302192400EF            
7302190912000       0105739N1062008E  1AGVS03250830          EH            
7302190913000       0000000S0000000E  2BBVS03  12017302192400EF            
7302190914000       0000000S0000000E  4BJVS03  12017302192400EF            
7302190915000       0105522N1053101E  1ABVS04320200          EACAI CAI   05
7302190916000       0105246N1051747E  1ABVS04320430          EH            
7302190917000       0102106N1061914E  1AGVS04330150          EH            
7302190918000       0095116N1052732E  1ABVS04390405          EH            
7302190919000       0105611N1052651E  1ABVS04321200          EH            
7302190920000       0094548N1054832E  1ABVS04401145          EH            
7302190921000       0000000S0000000E 13BBVS04  12017302192400EF            
7302190922000       0000000S0000000E 14BJVS04  12017302192400EF            
7302200860000       0163812N1070947E  1ABVS01010345          EA            
7302200861000       0164256N1071031E  1ABVS01010250          EA            
7302200862000       0161810N1072343E  1ABVS01020135          EA            
7302200863000       0164206N1070950E  1ABVS01010335          EA            
7302200864000       0164225N1071044E  1ABVS01010110          EA            
7302200865000       0164223N1071014E  1ABVS01010400          EA            
7302200866000       0164312N1071037E  1ABVS01010255          EA            
7302200867000       0000000S0000000E 15BBVS01  00017302201200EF            
7302200868000       0000000S0000000E 13BJVS01  00017302201200EF            
7302200870000       0000000S0000000E  3BBVS02  00017302201200EF            
7302200871000       0000000S0000000E 13BJVS02  00017302201200EF            
7302200873000       0000000S0000000E  1BBVS03  00017302201200EF            
7302200874000       0000000S0000000E  4BJVS03  00017302201200EF            
7302200876000       0000000S0000000E  7BBVS04  00017302201200EF            
7302200877000       0000000S0000000E  5BJVS04  00017302201200EF            
7302200923000       0164312N1071037E  1ABVS01010255          EA            
7302200924000       0164236N1071046E  1ABVS01010820          EA            
7302200925000       0163945N1070807E  1ABVS01010710          EA            
7302200926000       0161825N1072504E  1ABVS01020800          EA            
7302200927000       0161802N1072506E  1ABVS01020500          EA            
7302200928000       0161633N1074420E  1ABVS01020230          EA            
7302200929000       0161623N1074506E  1ABVS01021000          EA            
7302200930000       0000000S0000000E 14BBVS01  12017302202400EF            
7302200931000       0000000S0000000E 11BJVS01  12017302202400EF            
7302200932000       0142329N1090033E  1AGVS02070530          EA            
7302200933000       0105809N1080515E  1ABVS02170235          EH            
7302200934000       0000000S0000000E  1BBVS02  12017302202400EF            
7302200935000       0000000S0000000E  1BJVS02  12017302202400EF            
7302200936000       0000000S0000000E  9BBVS03  12017302202400EF            
7302200937000       0000000S0000000E  4BJVS03  12017302202400EF            
7302200938000       0094716N1052209E  1ABVS04390510          EG            
7302200939000       0100951N1043812E  1ABVS04380325          EA            
7302200940000       0094037N1053437E  1ABVS04391325          EA            
7302200941000       0000000S0000000E 12BBVS04  12017302202400EF            
7302200942000       0000000S0000000E 27BJVS04  12017302202400EF            
7302200943000       0155151N1080423E  1ABVS01032050          EA            
7302200956000       0143605N1090314E  1ABVS02072300          EA            
7302210944000       0000000S0000000E  8BBVS01  00017302211200EF            
7302210945000       0000000S0000000E 10BJVS01  00017302211200EF            
7302210946000       0000000S0000000E  1BBVS02  00017302211200EF            
7302210947000       0000000S0000000E 11BJVS02  00017302211200EF            
7302210948000       0000000S0000000E  7BBVS03  00017302211200EF            
7302210949000       0000000S0000000E  8BJVS03  00017302211200EF            
7302210950000       0000000S0000000E  2BBVS04  00017302211200EF            
7302210951000       0164223N1071014E  1ABVS01010500          EA            
7302210952000       0161815N1072550E  1ABVS01020040          EA            
7302210953000       0144241N1090226E  1ABVS01051100          EA            
7302210954000       0000000S0000000E  6BBVS01  12017302212400EF            
7302210955000       0000000S0000000E 12BJVS01  12017302212400EF            
7302210957000       0143554N1090318E  1ABVS02070635          EA            
7302210958000       0143235N1090229E  1ABVS02070025          EFTAM QUAN  06
7302210959000       0111304N1081829E  1ABVS02170515          EG            
7302210960000       0000000S0000000E  2BBVS02  12017302212400EF            
7302210961000       0000000S0000000E 11BJVS02  12017302212400EF            
7302210962000       0000000S0000000E  2BBVS03  12017302212400EF            
7302210963000       0000000S0000000E  5BJVS03  12017302212400EF            
7302210964000       0102858N1045519E  1ABVS04441140          EA            
7302210965000       0102858N1045519E  1ABVS04441545          EA            
7302210966000       0094006N1051924E  1ABVS04391110          EH            
7302210967000       0093838N1053206E  1ABVS04391050          EG            
7302210968000       0093750N1051557E  1ABVS04390815          EFVINH TUY  05
7302210969000       0000000S0000000E 16BBVS04  12017302212400EF            
7302210970000       0000000S0000000E 28BJVS04  12017302212400EF            
7302210971000       0153427N1081221E  1ABVS01041425          EA            
7302210978000       0115057N1065457E  1ABVS03211130          EH            
7302220972000       0164324N1071054E  1ABVS01010150          EA            
7302220974000       0000000S0000000E  9BBVS01  00017302221200EF            
7302220975000       0000000S0000000E  8BJVS01  00017302221200EF            
7302220976000       0000000S0000000E  5BBVS02  00017302221200EF            
7302220977000       0000000S0000000E  7BJVS02  00017302221200EF            
7302220979000       0000000S0000000E  5BBVS03  00017302221200EF            
7302220980000       0000000S0000000E 11BJVS03  00017302221200EF            
7302220981000       0153857N1081148E  1ABVS01031750          EA            
7302220982000       0161833N1072423E  1ABVS01021115          EA            
7302220983000       0161921N1072521E  1ABVS01021115          EA            
7302220984000       0161542N1073607E  1ABVS01022315          EA            
7302220988000       0124825N1081403E  1AGVS02110200          EA            
7302220991000       0111211N1060919E  1ABVS03241354          EH            
7302220995000       0105541N1053024E  1ABVS04321500          EA            
7302220996000       0105541N1053024E  1AGVS04321125          EA            
7302220997000       0101157N1062455E  1ABVS04341200          EH            
7302220998000       0102200N1055537E  1ABVS04331300          EG            
7302220999000       0095611N1062053E  1AFVS04351340          EM            
7302221000000       0105056N1051314E  1ABVS04441800          EA            
7302221001000       0095133N1052709E  1AGVS04390130          EH            
7302221004000       0164233N1071019E  1ABVS01010810          EA            
7302221005000       0163027N1072536E  1ABVS010205157302220600EA            
7302221006000       0000000S0000000E 12BBVS01  12017302222400EF            
7302221007000       0000000S0000000E 10BJVS01  12017302222400EF            
7302221008000       0125253N1081457E  1AGVS02110930          EA            
7302221009000       0141152N1075706E  1AGVS02060600          EA            
7302221010000       0000000S0000000E  1BBVS02  12017302222400EF            
7302221011000       0000000S0000000E  3BJVS02  12017302222400EF            
7302221012000       0103133N1043900E  1ABVS04380300          EH            
7302221013000       0100925N1061928E  1AFVS04340045          EMHOI THOI  01
7302221014000       0095139N1052702E  1ABVS043804007302220455EH            
7302221015000       0094421N1045949E  1ABVS04380100          EH            
7302221016000       0000000S0000000E  7BBVS04  12017302222400EF            
7302221017000       0000000S0000000E  7BJVS04  12017302222400EF            
7302230985000       0000000S0000000E 10BBVS01  00017302231200EF            
7302230986000       0000000S0000000E  8BJVS01  00017302231200EF            
7302230987000       0130114N1091312E  1AAVS02100230          HENGHIEP    01
7302230989000       0000000S0000000E  4BBVS02  00017302231200EF            
7302230990000       0000000S0000000E  6BJVS02  00017302231200EF            
7302230992000       0113802N1070553E  1ABVS03210245          EH            
7302230993000       0000000S0000000E  4BBVS03  00017302231200EF            
7302230994000       0000000S0000000E  5BJVS03  00017302231200EF            
7302231002000       0000000S0000000E  5BBVS04  00017302231200EF            
7302231003000       0000000S0000000E 24BJVS04  00017302231200EF            
7302231018000       0164239N1071023E  1ABVS01011040          EA            
7302231019000       0000000S0000000E  9BBVS01  12017302232400EF            
7302231020000       0000000S0000000E 24BJVS01  12017302232400EF            
7302231021000       0142947N1090221E  1ABVS02070130          EA            
7302231022000       0000000S0000000E  1BBVS02  12017302232400EF            
7302231023000       0000000S0000000E  3BJVS02  12017302232400EF            
7302231024000       0000000S0000000E  4BBVS03  12017302232400EF            
7302231025000       0000000S0000000E  9BJVS03  12017302232400EF            
7302231026000       0104932N1051319E  1ABVS04441035          EA            
7302231027000       0094009N1051950E  1ABVS043901007302230530EH            
7302231028000       0000000S0000000E 18BBVS04  12017302232400EF            
7302231029000       0000000S0000000E 43BBVS04  12017302232400EF            
7302231030000       0161556N1072948E  1ABVS010204407302230945EA            
7302231037000       0164203N1070925E  1ABVS01012210          EA            
7302231040000       0125250N1081514E  1ASVS02110800          EADRAISSI   01
7302231041000       0110643N1080813E  1ABVS02171110          EH            
7302231042000       0142232N1075642E  1AGVS02060540          EH            
7302231043000       0124848N1081430E  1AGVS02111300          EA            
7302231046000       0113612N1063558E  1ABVS03220100          EH            
7302231047000       0115025N1065506E  1ABVS03212315          EH            
7302231050000       0094909N1052504E  1ABVS04391250          EG            
7302231051000       0105151N1051932E  1ABVS04322330          EGCAU MUONG 10
7302231086000       0102732N1060947E  1ABVS04331330          EA            
7302241031000       0164247N1071248E  1ABVS01010030          EA            
7302241032000       0161806N1072503E  1ABVS01020145          EA            
7302241033000       0164206N1071000E  1ABVS01010100          EA            
7302241034000       0154026N1081206E  1ABVS01030130          EA            
7302241035000       0164227N1071017E  1ABVS01010330          EA            
7302241036000       0164106N1070909E  1ABVS01010405          EA            
7302241038000       0000000S0000000E  8BBVS01  00017302241200EF            
7302241039000       0000000S0000000E  7BJVS01  00017302241200EF            
7302241044000       0000000S0000000E  2BBVS02  00017302241200EF            
7302241045000       0000000S0000000E  6BJVS02  00017302241200EF            
7302241048000       0000000S0000000E 10BBVS03  00017302241200EF            
7302241049000       0000000S0000000E  5BJVS03  00017302241200EF            
7302241052000       0093951N1051927E  1ABVS04390030          EH            
7302241053000       0102504N1050015E  1ABVS04440240          EFTRI TON   06
7302241054000       0000000S0000000E 11BBVS04  00017302241200EF            
7302241055000       0000000S0000000E  3BJVS04  00017302241200EF            
7302241056000       0164106N1070909E  1ABVS01010805          EA            
7302241057000       0000000S0000000E  5BBVS01  12017302242400EF            
7302241058000       0000000S0000000E 10BJVS01  12017302242400EF            
7302241059000       0143157N1090155E  1AAVS02070540          EA            
7302241060000       0124901N1081456E  1AGVS02110220          EA            
7302241061000       0000000S0000000E  2BBVS02  12017302242400EF            
7302241062000       0000000S0000000E  1BJVS02  12017302242400EF            
7302241063000       0000000S0000000E  3BBVS03  12017302242400EF            
7302241064000       0000000S0000000E  6BBVS03  12017302242400EF            
7302241065000       0105604N1053019E  1AGVS04320600          EA            
7302241066000       0105132N1051310E  1ABVS04320300          EA            
7302241067000       0000000S0000000E 20BBVS04  12017302242400EF            
7302241068000       0000000S0000000E 19BJVS04  12017302242400EF            
7302241069000       0164203N1070925E  1ABVS01011350          EA            
7302241070000       0153929N1081144E  1ABVS01032220          EA            
7302241073000       0142701N1075948E  1ABVS02060930          EA            
7302241074000       0141224N1075754E  1AGVS020601007302241200EA            
7302241075000       0142401N1085949E  1ABVS02070700          EA            
7302241076000       0125948N1091439E  1ABVS02100400          EG            
7302241080000       0111050N1062411E  1AHVS03240940          EF            
7302241081000       0110504N1062244E  1AFVS03250700          EMLOC KHAE  02
7302241082000       0102505N1061112E  1AIVS04330945          EL            
7302241085000       0105119N1051310E  1ABVS04441128          EA            
7302241087000       0095622N1053029E  1ABVS04391120          EGLAM CHA   02
7302241099000       0102245N1060848E  1AGVS04330425          EA            
7302251071000       0000000S0000000E  6BBVS01  00017302251200EF            
7302251072000       0000000S0000000E 12BJVS01  00017302251200EF            
7302251077000       0000000S0000000E  1BBVS02  00017302251200EF            
7302251078000       0000000S0000000E  5BJVS02  00017302251200EF            
7302251079000       0115057N1065523E  1ABVS03210105          EH            
7302251083000       0000000S0000000E  7BBVS03  00017302251200EF            
7302251084000       0000000S0000000E  2BJVS03  00017302251200EF            
7302251088000       0000000S0000000E  5BBVS04  00017302251200EF            
7302251089000       0000000S0000000E  8BJVS04  00017302251200EF            
7302251090000       0000000S0000000E 12BBVS01  12017302252400EF            
7302251091000       0000000S0000000E 16BJVS01  12017302252400EF            
7302251092000       0141103N1075737E  1AGVS02080400          EA            
7302251093000       0125441N1081636E  1ASVS02110830          EABUON TRINH01
7302251094000       0000000S0000000E  7BBVS02  12017302252400EF            
7302251095000       0000000S0000000E 15BJVS02  12017302252400EF            
7302251096000       0000000S0000000E  1BBVS03  12017302252400EF            
7302251097000       0000000S0000000E  1BJVS03  12017302252400EF            
7302251098000       0105151N1051932E  1ABVS04320800          EH            
7302251100000       0000000S0000000E  6BBVS04  12017302252400EF            
7302251101000       0000000S0000000E 18BJVS04  12017302252400EF            
7302251102000       0163824N1070741E  1ABVS01011055          EA            
7302251103000       0163739N1070727E  1ABVS010110555         EA            
7302251104000       0161825N1072423E  1ABVS01020830          EA            
7302251115000       0164225N1071154E  1ABVS01012320          EA            
7302251116000       0164206N1071000E  1ABVS01012310          EA            
7302261105000       0155017N1080736E  1ATVS01031815          EHHWY 537     
7302261106000       0000000S0000000E  4BBVS01  00017302261200EF            
7302261107000       0000000S0000000E  4BJVS01  00017302261200EF            
7302261108000       0000000S0000000E 10BJVS02  00017302261200EF            
7302261109000       0110817N1063423E  1ABVS03230135          EA            
7302261110000       0000000S0000000E  9BBVS03  00017302261200EF            
7302261111000       0000000S0000000E  7BJVS03  00017302261200EF            
7302261112000       0094716N1052209E  1ABVS04390300          EH            
7302261114000       0000000S0000000E  2BBVS04  00017302261200EF            
7302261117000       0000000S0000000E 11BBVS01  12017302262400EF            
7302261118000       0000000S0000000E  9BJVS01  12017302262400EF            
7302261119000       0125536N1081708E  1ASVS02110900          EGROSSI     01
7302261120000       0000000S0000000E  2BBVS02  12017302262400EF            
7302261121000       0000000S0000000E  2BJVS02  12017302262400EF            
7302261122000       0000000S0000000E  1BBVS03  12017302262400EF            
7302261123000       0000000S0000000E  3BJVS03  12017302262400EF            
7302261124000       0093742N1053028E  1AGVS04390100          EA            
7302261125000       0095008N1052618E  1ABVS04391155          EG            
7302261126000       0000000S0000000E 17BBVS04  12017302262400EF            
7302261127000       0000000S0000000E 13BJVS04  12017302262400EF            
7302261128000       0164305N1071037E  1ABVS01010255          EA            
7302261129000       0164227N1071023E  1ABVS01011400          EA            
7302261130000       0164227N1071023E  1ABVS01011945          EA            
7302261131000       0164157N1070909E  1ABVS01012100          EA            
7302261135000       0112150N1061248E  1ABVS03240935          EH            
7302261136000       0111848N1061013E  1ABVS03241515          EA            
7302271132000       0000000S0000000E  6BBVS01  00017302271200EF            
7302271133000       0000000S0000000E 14BJVS01  00017302271200EF            
7302271134000       0000000S0000000E  6BJVS02  00017302271200EF            
7302271137000       0110900N1064229E  1ABVS03232120          EA            
7302271138000       0000000S0000000E  4BBVS03  00017302271200EF            
7302271139000       0000000S0000000E  1BJVS03  00017302271200EF            
7302271140000       0094720N1052213E  1ABVS04390225          EH            
7302271141000       0092957N1051241E  1ABVS04390330          EH            
7302271142000       0000000S0000000E  8BBVS04  00017302271200EF            
7302271143000       0000000S0000000E 13BJVS04  00017302271200EF            
7302271144000       0164305N1071037E  1ABVS01010305          EA            
7302271145000       0164140N1071027E  1ABVS01010915          EA            
7302271146000       0164236N1071050E  1ABVS01010330          EA            
7302271147000       0164227N1071023E  1ABVS01011020          EA            
7302271148000       0164223N1071041E  1ABVS01010645          EA            
7302271149000       0164223N1071014E  1ABVS01010920          EA            
7302271150000       0000000S0000000E 22BBVS01  12017302272400EF            
7302271151000       0000000S0000000E 16BJVS01  12017302272400EF            
7302271152000       0143423N1075524E  1AIVS02060915          EN            
7302271153000       0140600N1091210E  1AGVS02070400          EA            
7302271154000       0000000S0000000E  5BBVS02  12017302272400EF            
7302271155000       0000000S0000000E  8BJVS02  12017302272400EF            
7302271156000       0113548N1062859E  1ABVS03240355          EA            
7302271157000       0113539N1063545E  1ABVS03220230          EH            
7302271158000       0110540N1062045E  1ABVS03250910          EA            
7302271159000       0104255N1071435E  1ABVS03270225          EA            
7302271160000       0000000S0000000E  6BBVS03  12017302272400EF            
7302271161000       0000000S0000000E  4BJVS03  12017302272400EF            
7302271162000       0105106N1051310E  1AGVS04440830          EA            
7302271163000       0094716N1052152E  1ABVS04391340          EH            
7302271164000       0000000S0000000E  9BBVS04  12017302272400EF            
7302271165000       0000000S0000000E 17BJVS04  12017302272400EF            
7302271166000       0164314N1071037E  1ABVS01011845          EA            
7302271167000       0164305N1071111E  1ABVS01011800          EA            
7302271169000       0164206N1070952E  1ABVS01011400          EA            
7302271170000       0164203N1070952E  1ABVS010111007302271230EA            
7302271173000       0164054N1070754E  1ABVS01011300          EA            
7302271174000       0164049N1070948E  1ABVS01011300          EA            
7302271182000       0100535N1062705E  1ABVS04342300          EH            
7302271183000       0094919N1052519E  1ABVS04392000          EA            
7302281168000       0164248N1071023E  1ABVS01010250          EA            
7302281171000       0164122N1070808E  1ABVS01010415          EA            
7302281172000       0164122N1070808E  1ABVS01010415          EA            
7302281175000       0000000S0000000E 10BBVS01  00017302281200EF            
7302281176000       0000000S0000000E  4BJVS01  00017302281200EF            
7302281177000       0000000S0000000E  4BBVS02  00017302281200EF            
7302281178000       0000000S0000000E  6BJVS02  00017302281200EF            
7302281179000       0110807N1063324E  1ABVS032304357302280600EA            
7302281180000       0000000S0000000E  7BBVS03  00017302281200EF            
7302281181000       0000000S0000000E 10BJVS03  00017302281200EF            
7302281184000       0000000S0000000E  7BBVS04  00017302281200EF            
7302281185000       0000000S0000000E  2BJVS04  00017302281200EF            
7302281186000       0164122N1070808E  1ABVS01010420          EA            
7302281187000       0155514N1081703E  1ABVS01030812          ENHOI AN    05
7302281188000       0000000S0000000E 11BBVS01  12017302282400EF            
7302281189000       0000000S0000000E  6BJVS01  12017302282400EF            
7302281190000       0141802N1075251E  1ABVS02061100          EH            
7302281191000       0141149N1075523E  1ABVS02060545          EA            
7302281192000       0140534N1091224E  1AGVS02070940          EA            
7302281193000       0000000S0000000E  2BBVS02  12017302282400EF            
7302281194000       0000000S0000000E  5BJVS02  12017302282400EF            
7302281195000       0110807N1063324E  1ABVS03230755          EA            
7302281196000       0104314N1071511E  1ABVS03270915          EA            
7302281197000       0000000S0000000E  1BJVS03  12017302282400EF            
7302281198000       0105227N1051238E  1AGVS04320820          EA            
7302281199000       0101131N1054802E  1AFVS04361330          EMTAM THUAN 01
7302281200000       0000000S0000000E 18BBVS04  12017302282400EF            
7302281201000       0000000S0000000E 18BJVS04  12017302282400EF            
7302281202000       0164305N1071050E  1ABVS01011110          EA            
7302281203000       0164239N1071023E  1ABVS01011130          EA            
7302281204000       0164239N1071023E  1ABVS01011430          EA            
7302281205000       0164239N1070954E  1ABVS01012305          EA            
7302281206000       0164246N1071006E  1ABVS01012305          EA            
7302281207000       0151256N1085514E  1ABVS01052320          EA            
7302281212000       0141046N1075700E  1AGVS02080700          EA            
7302281213000       0115057N1065523E  1ABVS03211640          EH            
7302281214000       0105254N1064041E  1AFVS03291700          EMDAN BRI   01
7302281215000       0113539N1062836E  1ABVS03241510          EA            
7302281229000       0121624N1090145E  1ABVS02122300          EH            
7303011208000       0164201N1071000E  1ABVS01010315          EA            
7303011209000       0151618N1085138E  1ABVS01050150          EA            
7303011210000       0000000S0000000E  9BBVS01  00017303011200EF            
7303011211000       0000000S0000000E  7BJVS01  00017303011200EF            
7303011216000       0000000S0000000E  3BBVS03  00017303011200EF            
7303011217000       0000000S0000000E  8BJVS03  00017303011200EF            
7303011218000       0095021N1052633E  1ABVS04390425          EH            
7303011219000       0000000S0000000E  1BJVS04  00017303011200EF            
7303011220000       0164305N1071142E  1ABVS01010905          EA            
7303011221000       0164305N1071050E  1ABVS01010710          EA            
7303011222000       0164220N1071006E  1ABVS01010300          EA            
7303011223000       0164203N1070952E  1ABVS01010240          EA            
7303011224000       0162845N1072656E  1ABVS01021100          EA            
7303011225000       0162745N1072523E  1ABVS01020845          EA            
7303011226000       0000000S0000000E  6BBVS01  12017303012400EF            
7303011227000       0000000S0000000E  3BJVS01  12017303012400EF            
7303011228000       0142450N1075636E  1ABVS02060028          EA            
7303011230000       0000000S0000000E  2BBVS02  12017303012400EF            
7303011231000       0000000S0000000E  3BJVS02  12017303012400EF            
7303011232000       0000000S0000000E  3BBVS03  12017303012400EF            
7303011233000       0000000S0000000E  4BJVS03  12017303012400EF            
7303011234000       0092248N1051144E  1AFVS04420445          EMTANAN     01
7303011235000       0102939N1045428E  1ABVS04380740          EA            
7303011236000       0000000S0000000E  4BBVS04  12017303012400EF            
7303011237000       0164248N1071058E  1ABVS01011450          EA            
7303011239000       0154045N1081300E  1ABVS01032300          EA            
7303011240000       0153759N1082006E  1ABVS01042255          EH            
7303011244000       0113506N1062916E  1ABVS03241530          EFTONLE CHAM05
7303011245000       0111453N1055603E  1ABVS03241525          EH            
7303011248000       0102706N1045407E  1ABVS04382304          EA            
7303011249000       0102316N1050033E  1ABVS04441100          EFRANG RUA  10
7303011250000       0094037N1053615E  1ABVS04392400          EFLONG MY   06
7303011256000       0000000S0000000E 14BBVS04  00017303011200EF            
7303011257000       0000000S0000000E 22BJVS04  12017303012400EF            
7303011259000       0164036N1070915E  1ABVS01012015          EA            
7303011270000       0125956N1091855E  1ASVS02102300          EHPHU LUONG 01
7303021238000       0161846N1072326E  1ABVS01020415          EA            
7303021241000       0153454N1081152E  1ABVS01040045          EA            
7303021242000       0000000S0000000E 10BBVS01  00017303021200EF            
7303021243000       0000000S0000000E  4BJVS01  00017303021200EF            
7303021246000       0000000S0000000E  2BBVS03  00017303021200EF            
7303021247000       0000000S0000000E  4BJVS03  00017303021200EF            
7303021251000       0000000S0000000E  1BBVS04  00017303021200EF            
7303021252000       0000000S0000000E  1BJVS04  00017303021200EF            
7303021258000       0164216N1070956E  1ABVS01010705          EA            
7303021260000       0162842N1072652E  1ABVS01020930          EA            
7303021261000       0162814N1072625E  1ABVS01021005          EA            
7303021262000       0162808N1072544E  1ABVS01020800          EA            
7303021263000       0162751N1072510E  1ABVS01020955          EA            
7303021264000       0162747N1072533E  1ABVS01020950          EA            
7303021265000       0161633N1074424E  1ABVS01021000          EA            
7303021268000       0000000S0000000E 10BBVS01  12017303022400EF            
7303021269000       0000000S0000000E  3BJVS01  12017303022400EA            
7303021271000       0000000S0000000E  3BJVS02  12017303022400EF            
7303021272000       0000000S0000000E  1BBVS03  12017303022400EF            
7303021273000       0000000S0000000E  2BJVS03  12017303022400EF            
7303021274000       0105155N1051936E  1ABVS04320530          EHCAU NUONG 10
7303021275000       0102316N1050033E  1ABVS04440600          EGRANG RUA  10
7303021276000       0102815N1045546E  1ABVS04441200          EH            
7303021277000       0000000S0000000E 11BBVS04  12017303022400EF            
7303021278000       0000000S0000000E 33BJVS04  12017303022400EF            
7303021300000       0164305N1071037E  1ABVS01011200          EA            
7303021301000       0164227N1071023E  1ABVS01011200          EA            
7303021302000       0161802N1072452E  1ABVS01022230          EA            
7303021303000       0155403N1081024E  1ABVS01031800          EH            
7303021308000       0115056N1071403E  1ABVS03212345          EH            
7303021309000       0115057N1065523E  1ABVS03212330          EA            
7303021310000       0111730N1062311E  1ABVS03232350          EH            
7303021311000       0111457N1055603E  1ABVS03242320          EH            
7303021314000       0102815N1045546E  1ABVS04441200          EH            
7303031279000       0164305N1071037E  1ABVS01010245          EA            
7303031280000       0164227N1071023E  1ABVS01010040          EA            
7303031281000       0164223N1071014E  1ABVS01010350          EA            
7303031282000       0164223N1071014E  1ABVS01010745          EA            
7303031283000       0164203N1070952E  1ABVS01010455          EA            
7303031284000       0164203N1070952E  1ABVS01010515          EA            
7303031285000       0164201N1070942E  1ABVS01010310          EA            
7303031286000       0153039N1082506E  1ABVS01040435          EH            
7303031287000       0000000S0000000E  9BBVS01  12017303032400EF            
7303031288000       0000000S0000000E  4BJVS01  12017303032400EF            
7303031289000       0142406N1085957E  1ABVS02070600          EA            
7303031290000       0110019N1080609E  1ABVS02170100          EH            
7303031291000       0000000S0000000E  3BJVS02  12017303032400EF            
7303031292000       0113506N1062916E  1ABVS03240330          EA            
7303031293000       0112105N1061112E  1AIVS03240820          EB            
7303031294000       0000000S0000000E  3BBVS03  12017303032400EF            
7303031295000       0000000S0000000E  6BJVS03  12017303032400EF            
7303031296000       0094035N1053414E  1ABVS04391710          EALONG MY   04
7303031297000       0093706N1053030E  1ABVS04391835          EH            
7303031298000       0000000S0000000E 22BBVS04  12017303032400EF            
7303031299000       0000000S0000000E 21BJVS04  12017303032400EF            
7303031304000       0000000S0000000E 11BBVS01  00017303031200EF            
7303031305000       0000000S0000000E 12BJVS01  00017303031200EF            
7303031306000       0000000S0000000E  1BBVS02  00017303031200EF            
7303031307000       0000000S0000000E 10BJVS02  00017303031200EF            
7303031312000       0000000S0000000E  6BBVS03  00017303031200EF            
7303031313000       0000000S0000000E  4BJVS03  00017303031200EF            
7303031315000       0000000S0000000E  8BBVS04  00027303031200EF            
7303031316000       0000000S0000000E  6BJVS04  00017303031200EF            
7303031341000       0164239N1071006E  1ABVS01011105          EA            
7303031342000       0164203N1070952E  1ABVS010109257303031110EA            
7303031343000       0162808N1072544E  1ABVS01022310          EA            
7303041317000       0165338N1071403E  1ABVS01010900          EC            
7303041318000       0164305N1071037E  1ABVS01010745          EA            
7303041319000       0164227N1071023E  1ABVS01010930          EA            
7303041320000       0164201N1071000E  1ABVS01010730          EA            
7303041321000       0000000S0000000E  4BBVS01  12017303042400EF            
